:100000000C9461000C947E000C947E000C947E0095
:100010000C947E000C947E000C947E000C947E0068
:100020000C947E000C947E000C947E000C947E0058
:100030000C947E000C947E000C947E000C947E0048
:100040000C948C010C947E000C947E000C947E0029
:100050000C947E000C947E000C947E000C947E0028
:100060000C947E000C947E00000000002400270009
:100070002A0000000000250028002B0000000000DE
:1000800023002600290004040404040404040202DA
:100090000202020203030303030301020408102007
:1000A0004080010204081020010204081020000012
:1000B0000008000201000003040700000000000027
:1000C000000011241FBECFEFD8E0DEBFCDBF11E08E
:1000D000A0E0B1E0E2E5F5E002C005900D92AA30A3
:1000E000B107D9F721E0AAE0B1E001C01D92A73124
:1000F000B207E1F70E94D6010C94A7020C9400000D
:10010000833081F028F4813099F08230A9F008958D
:100110008730A9F08830C9F08430B1F48091800034
:100120008F7D03C0809180008F7780938000089539
:1001300084B58F7784BD089584B58F7DFBCF809182
:10014000B0008F778093B00008958091B0008F7DCC
:10015000F9CFCF93DF93282F30E0F901E255FF4F1D
:100160008491F901E656FF4FD491F901EA57FF4F08
:10017000C491CC23A1F081110E948000EC2FF0E00B
:10018000EE0FFF1FE458FF4FA591B491EC91ED23C2
:1001900081E090E009F480E0DF91CF91089580E064
:1001A00090E0FACF1F93CF93DF93282F30E0F9012F
:1001B000E255FF4F8491F901E656FF4FD491F901C2
:1001C000EA57FF4FC491CC23A9F0162F81110E944A
:1001D0008000EC2FF0E0EE0FFF1FEE58FF4FA591CF
:1001E000B4918FB7F894EC91111108C0D095DE232B
:1001F000DC938FBFDF91CF911F910895DE2BF8CF55
:10020000CF93DF9390E0FC01E656FF4F24918A578D
:100210009F4FFC0184918823D1F090E0880F991FB3
:10022000FC01E859FF4FA591B491FC01EE58FF4F36
:10023000C591D49161110EC09FB7F8948C91E22FB3
:10024000E0958E238C932881E223E8839FBFDF9182
:10025000CF9108958FB7F894EC91E22BEC938FBF78
:10026000F6CF3FB7F89480910F0190911001A091C3
:100270001101B091120126B5A89B05C02F3F19F0BE
:100280000196A11DB11D3FBFBA2FA92F982F882716
:10029000BC01CD01620F711D811D911D42E0660FF1
:1002A000771F881F991F4A95D1F708958F929F92C3
:1002B000AF92BF92CF92DF92EF92FF920E943101F4
:1002C0004B015C0184EFC82EDD24D394E12CF12C8A
:1002D0000E943101681979098A099B09683E7340B7
:1002E00081059105A8F321E0C21AD108E108F108BF
:1002F00088EE880E83E0981EA11CB11CC114D104A5
:10030000E104F10429F7FF90EF90DF90CF90BF90C8
:10031000AF909F908F9008951F920F920FB60F92FB
:1003200011242F933F938F939F93AF93BF9380910B
:100330000B0190910C01A0910D01B0910E01309133
:100340000A0123E0230F2D3758F50196A11DB11D99
:1003500020930A0180930B0190930C01A0930D014F
:10036000B0930E0180910F0190911001A0911101A5
:10037000B09112010196A11DB11D80930F019093C0
:100380001001A0931101B0931201BF91AF919F9101
:100390008F913F912F910F900FBE0F901F90189546
:1003A00026E8230F0296A11DB11DD2CF789484B503
:1003B000826084BD84B5816084BD85B5826085BD61
:1003C00085B5816085BD80916E00816080936E00EF
:1003D00010928100809181008260809381008091E1
:1003E0008100816080938100809180008160809392
:1003F00080008091B10084608093B1008091B00052
:1004000081608093B00080917A00846080937A004C
:1004100080917A00826080937A0080917A00816076
:1004200080937A0080917A00806880937A0010929D
:10043000C1000AE011E0C0E0D1E08881229661E0CD
:100440000E9400010C171D07C1F760E081E00E94C7
:10045000000160E082E00E94000130E0832E30E085
:10046000932E81E00E94A9008C0190931601809345
:10047000150182E00E94A9005C0190931401809311
:1004800013010130110519F500E011E0F801808138
:100490000E5F1F4F60E00E94D2000C171D07B1F7DE
:1004A00005E010E0AA94AB28A9F500E011E0F801FE
:1004B00080810E5F1F4F60E00E94D2000C171D0765
:1004C000B1F78114910469F20E940000CACF10E0D4
:1004D00000E020E0C22E21E0D22EF12CE12CF6012A
:1004E0008081F2E0CF0ED11C61E00E151F0509F0EE
:1004F00060E00E94D2008FEFE81AF80A95E0E91652
:10050000F10469F70E9456010F5F1F4F0530110576
:1005100001F7C6CF8CE0C82E81E0D82E95E0E92EF9
:10052000F12CF2E0CF1AD108F601808161E00E15BE
:100530001F0509F060E00E94D200F1E0EF1AF10817
:1005400080F70E9456010150110920F7BACFF894A4
:02055000FFCFDB
:0A0552000D000C000B000A00090068
:00000001FF
